{
  "contractName": "BlogSystem",
  "abi": [
    {
      "constant": true,
      "inputs": [],
      "name": "readPrice",
      "outputs": [
        {
          "name": "",
          "type": "uint256"
        }
      ],
      "payable": false,
      "stateMutability": "view",
      "type": "function"
    },
    {
      "constant": true,
      "inputs": [],
      "name": "publishPrice",
      "outputs": [
        {
          "name": "",
          "type": "uint256"
        }
      ],
      "payable": false,
      "stateMutability": "view",
      "type": "function"
    },
    {
      "inputs": [],
      "payable": false,
      "stateMutability": "nonpayable",
      "type": "constructor"
    },
    {
      "anonymous": false,
      "inputs": [
        {
          "indexed": false,
          "name": "sender",
          "type": "address"
        },
        {
          "indexed": false,
          "name": "title",
          "type": "string"
        }
      ],
      "name": "PublishArticle",
      "type": "event"
    },
    {
      "anonymous": false,
      "inputs": [
        {
          "indexed": false,
          "name": "sender",
          "type": "address"
        }
      ],
      "name": "ReadArticle",
      "type": "event"
    },
    {
      "constant": false,
      "inputs": [
        {
          "name": "_title",
          "type": "string"
        }
      ],
      "name": "Publish",
      "outputs": [],
      "payable": true,
      "stateMutability": "payable",
      "type": "function"
    },
    {
      "constant": false,
      "inputs": [
        {
          "name": "_title",
          "type": "string"
        }
      ],
      "name": "Read",
      "outputs": [],
      "payable": true,
      "stateMutability": "payable",
      "type": "function"
    },
    {
      "constant": true,
      "inputs": [],
      "name": "contractBalance",
      "outputs": [
        {
          "name": "",
          "type": "uint256"
        }
      ],
      "payable": false,
      "stateMutability": "view",
      "type": "function"
    },
    {
      "constant": false,
      "inputs": [],
      "name": "withdraw",
      "outputs": [],
      "payable": true,
      "stateMutability": "payable",
      "type": "function"
    },
    {
      "constant": true,
      "inputs": [
        {
          "name": "user",
          "type": "address"
        }
      ],
      "name": "balanceOf",
      "outputs": [
        {
          "name": "",
          "type": "uint256"
        }
      ],
      "payable": false,
      "stateMutability": "view",
      "type": "function"
    },
    {
      "constant": false,
      "inputs": [
        {
          "name": "_publishPrice",
          "type": "uint256"
        }
      ],
      "name": "setPublishPrice",
      "outputs": [],
      "payable": false,
      "stateMutability": "nonpayable",
      "type": "function"
    },
    {
      "constant": false,
      "inputs": [
        {
          "name": "_readPrice",
          "type": "uint256"
        }
      ],
      "name": "setReadPrice",
      "outputs": [],
      "payable": false,
      "stateMutability": "nonpayable",
      "type": "function"
    }
  ],
  "bytecode": "0x608060405266038d7ea4c6800060005566038d7ea4c6800060015534801561002657600080fd5b5033600260006101000a81548173ffffffffffffffffffffffffffffffffffffffff021916908373ffffffffffffffffffffffffffffffffffffffff1602179055506108ae806100776000396000f300608060405260043610610099576000357c0100000000000000000000000000000000000000000000000000000000900463ffffffff1680633ccfd60b1461009e5780633e0142d0146100a8578063600d09f51461010457806364acc3751461013157806370a082311461015e57806372d2186f146101b55780637e91400f146102115780638b7afe2e1461023c578063971c484514610267575b600080fd5b6100a6610292565b005b610102600480360381019080803590602001908201803590602001908080601f0160208091040260200160405190810160405280939291908181526020018383808284378201915050505050509192919290505050610365565b005b34801561011057600080fd5b5061012f600480360381019080803590602001909291905050506104bb565b005b34801561013d57600080fd5b5061015c60048036038101908080359060200190929190505050610521565b005b34801561016a57600080fd5b5061019f600480360381019080803573ffffffffffffffffffffffffffffffffffffffff169060200190929190505050610587565b6040518082815260200191505060405180910390f35b61020f600480360381019080803590602001908201803590602001908080601f01602080910402602001604051908101604052809392919081815260200183838082843782019150505050505091929192905050506105d0565b005b34801561021d57600080fd5b506102266107b2565b6040518082815260200191505060405180910390f35b34801561024857600080fd5b506102516107b8565b6040518082815260200191505060405180910390f35b34801561027357600080fd5b5061027c6107d7565b6040518082815260200191505060405180910390f35b6000600360003373ffffffffffffffffffffffffffffffffffffffff1673ffffffffffffffffffffffffffffffffffffffff1681526020019081526020016000205490506000600360003373ffffffffffffffffffffffffffffffffffffffff1673ffffffffffffffffffffffffffffffffffffffff168152602001908152602001600020819055503373ffffffffffffffffffffffffffffffffffffffff166108fc829081150290604051600060405180830381858888f19350505050158015610361573d6000803e3d6000fd5b5050565b60008054341015151561037757600080fd5b6005826040518082805190602001908083835b6020831015156103af578051825260208201915060208101905060208303925061038a565b6001836020036101000a038019825116818451168082178552505050505050905001915050908152602001604051809103902060009054906101000a900473ffffffffffffffffffffffffffffffffffffffff169050600054600360008373ffffffffffffffffffffffffffffffffffffffff1673ffffffffffffffffffffffffffffffffffffffff168152602001908152602001600020600082825401925050819055507f51ca562e1222bf865f4293fac3a9c53034d58809b521710bcb8941b63a67481e33604051808273ffffffffffffffffffffffffffffffffffffffff1673ffffffffffffffffffffffffffffffffffffffff16815260200191505060405180910390a15050565b3373ffffffffffffffffffffffffffffffffffffffff16600260009054906101000a900473ffffffffffffffffffffffffffffffffffffffff1673ffffffffffffffffffffffffffffffffffffffff1614151561051757600080fd5b8060018190555050565b3373ffffffffffffffffffffffffffffffffffffffff16600260009054906101000a900473ffffffffffffffffffffffffffffffffffffffff1673ffffffffffffffffffffffffffffffffffffffff1614151561057d57600080fd5b8060008190555050565b6000600360008373ffffffffffffffffffffffffffffffffffffffff1673ffffffffffffffffffffffffffffffffffffffff168152602001908152602001600020549050919050565b60015434101515156105e157600080fd5b336005826040518082805190602001908083835b60208310151561061a57805182526020820191506020810190506020830392506105f5565b6001836020036101000a038019825116818451168082178552505050505050905001915050908152602001604051809103902060006101000a81548173ffffffffffffffffffffffffffffffffffffffff021916908373ffffffffffffffffffffffffffffffffffffffff16021790555080600460003373ffffffffffffffffffffffffffffffffffffffff1673ffffffffffffffffffffffffffffffffffffffff16815260200190815260200160002090805190602001906106de9291906107dd565b507f9e4773d4492486b1228a454c71607f60409cd35b5185ab4099c7d54252b866013382604051808373ffffffffffffffffffffffffffffffffffffffff1673ffffffffffffffffffffffffffffffffffffffff16815260200180602001828103825283818151815260200191508051906020019080838360005b83811015610774578082015181840152602081019050610759565b50505050905090810190601f1680156107a15780820380516001836020036101000a031916815260200191505b50935050505060405180910390a150565b60005481565b60003073ffffffffffffffffffffffffffffffffffffffff1631905090565b60015481565b828054600181600116156101000203166002900490600052602060002090601f016020900481019282601f1061081e57805160ff191683800117855561084c565b8280016001018555821561084c579182015b8281111561084b578251825591602001919060010190610830565b5b509050610859919061085d565b5090565b61087f91905b8082111561087b576000816000905550600101610863565b5090565b905600a165627a7a72305820a3d6bee13cc6cbc12061334976aefce2a57a3d0a79926a86c768ff0f40a9296b0029",
  "source": "pragma solidity ^0.4.4;\n\ncontract BlogSystem {\n\n    // 每次阅读的奖励\n    uint256 public readPrice = 0.001 ether;\n\n    // 每次发布文章的价格\n    uint256 public publishPrice = 0.001 ether;\n\n    // 合约拥有者的地址\n    address owner;\n\n    // 发布文章事件\n    event PublishArticle(address sender, string title);\n\n    // 点赞文章事件\n    event ReadArticle(address sender);\n\n    // 存放每个作者的奖励，用于提现\n    mapping (address => uint) pendingWithdrawals;\n\n    // 存放address到title的映射\n    mapping (address => string) titleOf;\n\n    // 存放title到address的映射\n    mapping (string => address) authorAddress;\n\n\n    // 函数装饰器--合约拥有者权限\n    modifier onlyOwner() {\n        require(owner == msg.sender);\n        _;\n    }\n\n    // 合约构造函数\n    function BlogSystem() {\n        owner = msg.sender;\n    }\n\n    // 发布文章函数\n    function Publish(string _title) payable {\n        require(msg.value >= publishPrice);\n\n        // 存放文章与作者地址的映射\n        authorAddress[_title] = msg.sender;\n        titleOf[msg.sender] = _title;\n\n        // 触发发布文章事件\n        PublishArticle(msg.sender, _title);\n    }\n\n    // 点赞文章函数\n    function Read(string _title) payable {\n        require(msg.value >= readPrice);\n\n        // 文章作者获得奖励\n        address _author = authorAddress[_title];\n        pendingWithdrawals[_author] += readPrice;\n\n        // 触发文章点赞事件\n        ReadArticle(msg.sender);\n    }\n\n\n    // 查看合约余额\n    function contractBalance() constant returns(uint) {\n        return this.balance;\n    }\n\n\n    // 提现奖励\n    function withdraw() payable {\n        uint amount = pendingWithdrawals[msg.sender];\n        pendingWithdrawals[msg.sender] = 0;\n        msg.sender.transfer(amount);\n    }\n\n    // 查看作者累计奖励\n    function balanceOf(address user) constant returns(uint) {\n        return pendingWithdrawals[user];\n    }\n\n    // 设置发布文章价格\n    function setPublishPrice(uint _publishPrice) onlyOwner {\n        publishPrice = _publishPrice;\n    }\n\n    // 设置阅读文章奖励\n    function setReadPrice(uint _readPrice) onlyOwner {\n        readPrice = _readPrice;\n    }\n\n}\n",
  "sourcePath": "C:\\Users\\widow\\Desktop\\love-words\\contracts\\BlogSystem.sol",
  "compiler": {
    "name": "solc",
    "version": "0.4.23+commit.124ca40d.Emscripten.clang"
  },
  "schemaVersion": "2.0.0",
  "updatedAt": "2018-12-31T12:18:41.708Z"
}